{
  "contractName": "DrivingLicense",
  "abi": [
    {
      "inputs": [],
      "stateMutability": "nonpayable",
      "type": "constructor"
    },
    {
      "anonymous": false,
      "inputs": [
        {
          "indexed": false,
          "internalType": "int256",
          "name": "id",
          "type": "int256"
        }
      ],
      "name": "LicenseCreated",
      "type": "event"
    },
    {
      "inputs": [
        {
          "internalType": "uint256",
          "name": "",
          "type": "uint256"
        }
      ],
      "name": "ids",
      "outputs": [
        {
          "internalType": "int256",
          "name": "",
          "type": "int256"
        }
      ],
      "stateMutability": "view",
      "type": "function",
      "constant": true
    },
    {
      "inputs": [
        {
          "internalType": "int256",
          "name": "",
          "type": "int256"
        }
      ],
      "name": "licenses",
      "outputs": [
        {
          "internalType": "string",
          "name": "name",
          "type": "string"
        },
        {
          "internalType": "int256",
          "name": "id",
          "type": "int256"
        },
        {
          "internalType": "uint256",
          "name": "timestamp",
          "type": "uint256"
        }
      ],
      "stateMutability": "view",
      "type": "function",
      "constant": true
    },
    {
      "inputs": [
        {
          "internalType": "string",
          "name": "name",
          "type": "string"
        },
        {
          "internalType": "int256",
          "name": "id",
          "type": "int256"
        }
      ],
      "name": "createLicense",
      "outputs": [],
      "stateMutability": "nonpayable",
      "type": "function"
    },
    {
      "inputs": [],
      "name": "getLicensesSize",
      "outputs": [
        {
          "internalType": "uint256",
          "name": "",
          "type": "uint256"
        }
      ],
      "stateMutability": "view",
      "type": "function",
      "constant": true
    }
  ],
  "bytecode": "0x608060405234801561001057600080fd5b50336000806101000a81548173ffffffffffffffffffffffffffffffffffffffff021916908373ffffffffffffffffffffffffffffffffffffffff160217905550610a1e806100606000396000f3fe608060405234801561001057600080fd5b506004361061004c5760003560e01c8063a6ef6c0d14610051578063a78ff3b314610083578063fac333ac146100a1578063fed92d85146100d1575b600080fd5b61006b600480360381019061006691906104be565b6100ed565b60405161007a939291906105ac565b60405180910390f35b61008b61019f565b60405161009891906105ea565b60405180910390f35b6100bb60048036038101906100b69190610631565b6101ac565b6040516100c8919061065e565b60405180910390f35b6100eb60048036038101906100e691906107ae565b6101d0565b005b600160205280600052604060002060009150905080600001805461011090610839565b80601f016020809104026020016040519081016040528092919081815260200182805461013c90610839565b80156101895780601f1061015e57610100808354040283529160200191610189565b820191906000526020600020905b81548152906001019060200180831161016c57829003601f168201915b5050505050908060010154908060020154905083565b6000600280549050905090565b600281815481106101bc57600080fd5b906000526020600020016000915090505481565b60008054906101000a900473ffffffffffffffffffffffffffffffffffffffff1673ffffffffffffffffffffffffffffffffffffffff163373ffffffffffffffffffffffffffffffffffffffff161461025e576040517f08c379a0000000000000000000000000000000000000000000000000000000008152600401610255906108b6565b60405180910390fd5b6000151561026b82610373565b1515146102ad576040517f08c379a00000000000000000000000000000000000000000000000000000000081526004016102a490610922565b60405180910390fd5b60028190806001815401808255809150506001900390600052602060002001600090919091909150556040518060600160405280838152602001828152602001428152506001600083815260200190815260200160002060008201518160000190805190602001906103209291906103d1565b5060208201518160010155604082015181600201559050507f167cde8b81c5c2cbff457e1a4fbe669f44a188908cc35f48a0990c8bd779b81d81604051610367919061065e565b60405180910390a15050565b6000806000905060005b6002805490508110156103c7576002818154811061039e5761039d610942565b5b906000526020600020015484036103b457600191505b80806103bf906109a0565b91505061037d565b5080915050919050565b8280546103dd90610839565b90600052602060002090601f0160209004810192826103ff5760008555610446565b82601f1061041857805160ff1916838001178555610446565b82800160010185558215610446579182015b8281111561044557825182559160200191906001019061042a565b5b5090506104539190610457565b5090565b5b80821115610470576000816000905550600101610458565b5090565b6000604051905090565b600080fd5b600080fd5b6000819050919050565b61049b81610488565b81146104a657600080fd5b50565b6000813590506104b881610492565b92915050565b6000602082840312156104d4576104d361047e565b5b60006104e2848285016104a9565b91505092915050565b600081519050919050565b600082825260208201905092915050565b60005b8381101561052557808201518184015260208101905061050a565b83811115610534576000848401525b50505050565b6000601f19601f8301169050919050565b6000610556826104eb565b61056081856104f6565b9350610570818560208601610507565b6105798161053a565b840191505092915050565b61058d81610488565b82525050565b6000819050919050565b6105a681610593565b82525050565b600060608201905081810360008301526105c6818661054b565b90506105d56020830185610584565b6105e2604083018461059d565b949350505050565b60006020820190506105ff600083018461059d565b92915050565b61060e81610593565b811461061957600080fd5b50565b60008135905061062b81610605565b92915050565b6000602082840312156106475761064661047e565b5b60006106558482850161061c565b91505092915050565b60006020820190506106736000830184610584565b92915050565b600080fd5b600080fd5b7f4e487b7100000000000000000000000000000000000000000000000000000000600052604160045260246000fd5b6106bb8261053a565b810181811067ffffffffffffffff821117156106da576106d9610683565b5b80604052505050565b60006106ed610474565b90506106f982826106b2565b919050565b600067ffffffffffffffff82111561071957610718610683565b5b6107228261053a565b9050602081019050919050565b82818337600083830152505050565b600061075161074c846106fe565b6106e3565b90508281526020810184848401111561076d5761076c61067e565b5b61077884828561072f565b509392505050565b600082601f83011261079557610794610679565b5b81356107a584826020860161073e565b91505092915050565b600080604083850312156107c5576107c461047e565b5b600083013567ffffffffffffffff8111156107e3576107e2610483565b5b6107ef85828601610780565b9250506020610800858286016104a9565b9150509250929050565b7f4e487b7100000000000000000000000000000000000000000000000000000000600052602260045260246000fd5b6000600282049050600182168061085157607f821691505b6020821081036108645761086361080a565b5b50919050565b7f596f752073686f756c6420626520616e2061646d696e00000000000000000000600082015250565b60006108a06016836104f6565b91506108ab8261086a565b602082019050919050565b600060208201905081810360008301526108cf81610893565b9050919050565b7f546865726520697320616c726561647920612075736572000000000000000000600082015250565b600061090c6017836104f6565b9150610917826108d6565b602082019050919050565b6000602082019050818103600083015261093b816108ff565b9050919050565b7f4e487b7100000000000000000000000000000000000000000000000000000000600052603260045260246000fd5b7f4e487b7100000000000000000000000000000000000000000000000000000000600052601160045260246000fd5b60006109ab82610593565b91507fffffffffffffffffffffffffffffffffffffffffffffffffffffffffffffffff82036109dd576109dc610971565b5b60018201905091905056fea264697066735822122027373097b5d11f3ef80fac4f7d94f0789d3b175e63b7b9da35c86532f5b17edf64736f6c634300080e0033",
  "immutableReferences": {},
  "source": "// SPDX-License-Identifier: GPL-3.0\n\npragma solidity ^0.8.14;\n\ncontract DrivingLicense{\n\n    address private admin;\n\n    struct License{\n        string name;\n        int256 id;\n        uint timestamp;\n    }\n\n    mapping(int256 => License) public licenses;\n    int256[] public ids;\n    \n    constructor () {\n\n        admin = msg.sender;\n    }\n\n    modifier isAdmin{\n        require(msg.sender == admin,'You should be an admin');\n        _;\n    }\n\n    event LicenseCreated(int256 id);\n\n\n    function containes(int256 id) private view returns(bool){\n     bool doesListContainElement = false;\n        for (uint i=0; i < ids.length; i++) {\n            if (id == ids[i]) {\n                doesListContainElement = true;\n             }\n             } \n              return doesListContainElement;\n         \n    }\n    function createLicense(string memory name,int256 id) public isAdmin {\n        require(containes(id) == false ,'There is already a user');\n        \n        ids.push(id);\n        licenses[id] = License({\n            name: name,\n            id: id,\n            timestamp: block.timestamp\n        });\n        emit LicenseCreated(id);\n    }\n\n    function getLicensesSize() external view returns(uint256){\n        return ids.length;\n    }\n\n\n}",
  "sourcePath": "/Users/mansour/Flutter Projects/dapp_f/contracts/DrivingLicense.sol",
  "compiler": {
    "name": "solc",
    "version": "0.8.14+commit.80d49f37.Emscripten.clang"
  },
  "schemaVersion": "3.4.4",
  "updatedAt": "2022-05-25T17:02:41.497Z",
  "networkType": "ethereum",
  "devdoc": {
    "kind": "dev",
    "methods": {},
    "version": 1
  },
  "userdoc": {
    "kind": "user",
    "methods": {},
    "version": 1
  }
}