{
  "contractName": "Todo",
  "abi": [
    {
      "anonymous": false,
      "inputs": [
        {
          "indexed": false,
          "internalType": "string",
          "name": "task",
          "type": "string"
        }
      ],
      "name": "TaskCreated",
      "type": "event"
    },
    {
      "inputs": [
        {
          "internalType": "address",
          "name": "",
          "type": "address"
        },
        {
          "internalType": "uint256",
          "name": "",
          "type": "uint256"
        }
      ],
      "name": "users",
      "outputs": [
        {
          "internalType": "string",
          "name": "task",
          "type": "string"
        },
        {
          "internalType": "bool",
          "name": "isDone",
          "type": "bool"
        }
      ],
      "stateMutability": "view",
      "type": "function"
    },
    {
      "inputs": [
        {
          "internalType": "string",
          "name": "_task",
          "type": "string"
        }
      ],
      "name": "addTask",
      "outputs": [],
      "stateMutability": "nonpayable",
      "type": "function"
    },
    {
      "inputs": [
        {
          "internalType": "uint256",
          "name": "_taskIndex",
          "type": "uint256"
        }
      ],
      "name": "getTask",
      "outputs": [
        {
          "components": [
            {
              "internalType": "string",
              "name": "task",
              "type": "string"
            },
            {
              "internalType": "bool",
              "name": "isDone",
              "type": "bool"
            }
          ],
          "internalType": "struct Todo.Task",
          "name": "",
          "type": "tuple"
        }
      ],
      "stateMutability": "view",
      "type": "function"
    },
    {
      "inputs": [
        {
          "internalType": "uint256",
          "name": "_taskIndex",
          "type": "uint256"
        },
        {
          "internalType": "bool",
          "name": "_status",
          "type": "bool"
        }
      ],
      "name": "updateStatus",
      "outputs": [],
      "stateMutability": "nonpayable",
      "type": "function"
    },
    {
      "inputs": [
        {
          "internalType": "uint256",
          "name": "_taskIndex",
          "type": "uint256"
        }
      ],
      "name": "deleteTask",
      "outputs": [],
      "stateMutability": "nonpayable",
      "type": "function"
    },
    {
      "inputs": [],
      "name": "getTaskCount",
      "outputs": [
        {
          "internalType": "uint256",
          "name": "",
          "type": "uint256"
        }
      ],
      "stateMutability": "view",
      "type": "function"
    }
  ],
  "bytecode": "0x608060405234801561001057600080fd5b50610bdb806100206000396000f3fe608060405234801561001057600080fd5b50600436106100625760003560e01c80631d65e77e14610067578063387008c21461009757806354a02f9e146100b3578063560f3192146100e45780636723856214610100578063c17a340e1461011c575b600080fd5b610081600480360381019061007c9190610707565b61013a565b60405161008e9190610825565b60405180910390f35b6100b160048036038101906100ac9190610873565b610265565b005b6100cd60048036038101906100c89190610911565b6102e2565b6040516100db9291906109aa565b60405180910390f35b6100fe60048036038101906100f99190610707565b6103b8565b005b61011a60048036038101906101159190610a3f565b610440565b005b61012461057f565b6040516101319190610a9b565b60405180910390f35b6101426105c8565b60008060003373ffffffffffffffffffffffffffffffffffffffff1673ffffffffffffffffffffffffffffffffffffffff168152602001908152602001600020838154811061019457610193610ab6565b5b90600052602060002090600202019050806040518060400160405290816000820180546101c090610b14565b80601f01602080910402602001604051908101604052809291908181526020018280546101ec90610b14565b80156102395780601f1061020e57610100808354040283529160200191610239565b820191906000526020600020905b81548152906001019060200180831161021c57829003601f168201915b505050505081526020016001820160009054906101000a900460ff161515151581525050915050919050565b806000803373ffffffffffffffffffffffffffffffffffffffff1673ffffffffffffffffffffffffffffffffffffffff16815260200190815260200160002083815481106102b6576102b5610ab6565b5b906000526020600020906002020160010160006101000a81548160ff0219169083151502179055505050565b600060205281600052604060002081815481106102fe57600080fd5b90600052602060002090600202016000915091505080600001805461032290610b14565b80601f016020809104026020016040519081016040528092919081815260200182805461034e90610b14565b801561039b5780601f106103705761010080835404028352916020019161039b565b820191906000526020600020905b81548152906001019060200180831161037e57829003601f168201915b5050505050908060010160009054906101000a900460ff16905082565b6000803373ffffffffffffffffffffffffffffffffffffffff1673ffffffffffffffffffffffffffffffffffffffff168152602001908152602001600020818154811061040857610407610ab6565b5b90600052602060002090600202016000808201600061042791906105e4565b6001820160006101000a81549060ff0219169055505050565b6000803373ffffffffffffffffffffffffffffffffffffffff1673ffffffffffffffffffffffffffffffffffffffff168152602001908152602001600020604051806040016040528084848080601f016020809104026020016040519081016040528093929190818152602001838380828437600081840152601f19601f820116905080830192505050505050508152602001600015158152509080600181540180825580915050600190039060005260206000209060020201600090919091909150600082015181600001908051906020019061051f929190610624565b5060208201518160010160006101000a81548160ff02191690831515021790555050507fabf948a1223daba3f04a6050c5ee3bfb2b135790471a6bbf2d2a93bc29faaf9f8282604051610573929190610b81565b60405180910390a15050565b60008060003373ffffffffffffffffffffffffffffffffffffffff1673ffffffffffffffffffffffffffffffffffffffff16815260200190815260200160002080549050905090565b6040518060400160405280606081526020016000151581525090565b5080546105f090610b14565b6000825580601f106106025750610621565b601f01602090049060005260206000209081019061062091906106aa565b5b50565b82805461063090610b14565b90600052602060002090601f0160209004810192826106525760008555610699565b82601f1061066b57805160ff1916838001178555610699565b82800160010185558215610699579182015b8281111561069857825182559160200191906001019061067d565b5b5090506106a691906106aa565b5090565b5b808211156106c35760008160009055506001016106ab565b5090565b600080fd5b600080fd5b6000819050919050565b6106e4816106d1565b81146106ef57600080fd5b50565b600081359050610701816106db565b92915050565b60006020828403121561071d5761071c6106c7565b5b600061072b848285016106f2565b91505092915050565b600081519050919050565b600082825260208201905092915050565b60005b8381101561076e578082015181840152602081019050610753565b8381111561077d576000848401525b50505050565b6000601f19601f8301169050919050565b600061079f82610734565b6107a9818561073f565b93506107b9818560208601610750565b6107c281610783565b840191505092915050565b60008115159050919050565b6107e2816107cd565b82525050565b600060408301600083015184820360008601526108058282610794565b915050602083015161081a60208601826107d9565b508091505092915050565b6000602082019050818103600083015261083f81846107e8565b905092915050565b610850816107cd565b811461085b57600080fd5b50565b60008135905061086d81610847565b92915050565b6000806040838503121561088a576108896106c7565b5b6000610898858286016106f2565b92505060206108a98582860161085e565b9150509250929050565b600073ffffffffffffffffffffffffffffffffffffffff82169050919050565b60006108de826108b3565b9050919050565b6108ee816108d3565b81146108f957600080fd5b50565b60008135905061090b816108e5565b92915050565b60008060408385031215610928576109276106c7565b5b6000610936858286016108fc565b9250506020610947858286016106f2565b9150509250929050565b600082825260208201905092915050565b600061096d82610734565b6109778185610951565b9350610987818560208601610750565b61099081610783565b840191505092915050565b6109a4816107cd565b82525050565b600060408201905081810360008301526109c48185610962565b90506109d3602083018461099b565b9392505050565b600080fd5b600080fd5b600080fd5b60008083601f8401126109ff576109fe6109da565b5b8235905067ffffffffffffffff811115610a1c57610a1b6109df565b5b602083019150836001820283011115610a3857610a376109e4565b5b9250929050565b60008060208385031215610a5657610a556106c7565b5b600083013567ffffffffffffffff811115610a7457610a736106cc565b5b610a80858286016109e9565b92509250509250929050565b610a95816106d1565b82525050565b6000602082019050610ab06000830184610a8c565b92915050565b7f4e487b7100000000000000000000000000000000000000000000000000000000600052603260045260246000fd5b7f4e487b7100000000000000000000000000000000000000000000000000000000600052602260045260246000fd5b60006002820490506001821680610b2c57607f821691505b602082108103610b3f57610b3e610ae5565b5b50919050565b82818337600083830152505050565b6000610b608385610951565b9350610b6d838584610b45565b610b7683610783565b840190509392505050565b60006020820190508181036000830152610b9c818486610b54565b9050939250505056fea26469706673582212202b366a6262c529583f2bf38f640b61aeb67322ddbb16fa00d32676446476a83464736f6c634300080e0033",
  "immutableReferences": {},
  "source": "// SPDX-License-Identifier: GPL-3.0\n// pragma experimental ABIEncoderV2;\npragma solidity ^0.8.14;\n// Creating a contract\ncontract Todo{\n    \n// Defining a structure to\n// store a task\nstruct Task\n{\n  string task;\n  bool isDone;\n}\n \nmapping(address => Task[]) public users;\n      \nevent TaskCreated(string task);\n// Defining function to add  a task\nfunction addTask(string calldata _task) external\n{\n  users[msg.sender].push(Task({\n    task:_task,\n    isDone:false\n    }));\n  emit TaskCreated(_task);\n}\n \n// Defining a function to get details of a task \nfunction getTask(uint _taskIndex) external view returns (Task memory)\n{\n  Task storage task = users[msg.sender][_taskIndex];\n  return task;\n}\n   \n// Defining a function to update status of a task\nfunction updateStatus(uint256 _taskIndex,bool _status) external\n{\n  users[msg.sender][_taskIndex].isDone = _status;\n}\n   \n// Defining a function to delete a task\nfunction deleteTask(uint256 _taskIndex) external\n{\n  delete users[msg.sender][_taskIndex];\n}\n   \n// Defining a function to get task count.\nfunction getTaskCount() external view returns (uint256)\n{\n  return users[msg.sender].length;\n} \n}",
  "sourcePath": "/Users/mansour/Flutter Projects/dapp_f/contracts/todo.sol",
  "compiler": {
    "name": "solc",
    "version": "0.8.14+commit.80d49f37.Emscripten.clang"
  },
  "schemaVersion": "3.4.4",
  "updatedAt": "2022-05-22T21:35:55.497Z",
  "devdoc": {
    "kind": "dev",
    "methods": {},
    "version": 1
  },
  "userdoc": {
    "kind": "user",
    "methods": {},
    "version": 1
  }
}